{
  "contractName": "DefiToken",
  "abi": [
    {
      "inputs": [
        {
          "internalType": "contract StackToken",
          "name": "_stackToken",
          "type": "address"
        },
        {
          "internalType": "contract RewardsToken",
          "name": "_rewardsToken",
          "type": "address"
        }
      ],
      "stateMutability": "nonpayable",
      "type": "constructor"
    },
    {
      "inputs": [
        {
          "internalType": "address",
          "name": "",
          "type": "address"
        }
      ],
      "name": "hasStaked",
      "outputs": [
        {
          "internalType": "bool",
          "name": "",
          "type": "bool"
        }
      ],
      "stateMutability": "view",
      "type": "function",
      "constant": true
    },
    {
      "inputs": [
        {
          "internalType": "address",
          "name": "",
          "type": "address"
        }
      ],
      "name": "isStaking",
      "outputs": [
        {
          "internalType": "bool",
          "name": "",
          "type": "bool"
        }
      ],
      "stateMutability": "view",
      "type": "function",
      "constant": true
    },
    {
      "inputs": [],
      "name": "name",
      "outputs": [
        {
          "internalType": "string",
          "name": "",
          "type": "string"
        }
      ],
      "stateMutability": "view",
      "type": "function",
      "constant": true
    },
    {
      "inputs": [],
      "name": "owner",
      "outputs": [
        {
          "internalType": "address",
          "name": "",
          "type": "address"
        }
      ],
      "stateMutability": "view",
      "type": "function",
      "constant": true
    },
    {
      "inputs": [],
      "name": "rewardsToken",
      "outputs": [
        {
          "internalType": "contract RewardsToken",
          "name": "",
          "type": "address"
        }
      ],
      "stateMutability": "view",
      "type": "function",
      "constant": true
    },
    {
      "inputs": [],
      "name": "stackToken",
      "outputs": [
        {
          "internalType": "contract StackToken",
          "name": "",
          "type": "address"
        }
      ],
      "stateMutability": "view",
      "type": "function",
      "constant": true
    },
    {
      "inputs": [
        {
          "internalType": "uint256",
          "name": "",
          "type": "uint256"
        }
      ],
      "name": "stakers",
      "outputs": [
        {
          "internalType": "address",
          "name": "",
          "type": "address"
        }
      ],
      "stateMutability": "view",
      "type": "function",
      "constant": true
    },
    {
      "inputs": [
        {
          "internalType": "address",
          "name": "",
          "type": "address"
        }
      ],
      "name": "stakingBalance",
      "outputs": [
        {
          "internalType": "uint256",
          "name": "",
          "type": "uint256"
        }
      ],
      "stateMutability": "view",
      "type": "function",
      "constant": true
    },
    {
      "inputs": [
        {
          "internalType": "uint256",
          "name": "_amount",
          "type": "uint256"
        }
      ],
      "name": "stakeTokens",
      "outputs": [],
      "stateMutability": "nonpayable",
      "type": "function"
    },
    {
      "inputs": [],
      "name": "unstakeTokens",
      "outputs": [],
      "stateMutability": "nonpayable",
      "type": "function"
    },
    {
      "inputs": [],
      "name": "issueTokens",
      "outputs": [],
      "stateMutability": "nonpayable",
      "type": "function"
    }
  ],
  "bytecode": "0x60806040526040518060400160405280600981526020017f44656669746f6b656e0000000000000000000000000000000000000000000000815250600090805190602001906200005192919062000150565b503480156200005f57600080fd5b50604051620014153803806200141583398181016040528101906200008591906200022e565b81600260006101000a81548173ffffffffffffffffffffffffffffffffffffffff021916908373ffffffffffffffffffffffffffffffffffffffff16021790555080600360006101000a81548173ffffffffffffffffffffffffffffffffffffffff021916908373ffffffffffffffffffffffffffffffffffffffff16021790555033600160006101000a81548173ffffffffffffffffffffffffffffffffffffffff021916908373ffffffffffffffffffffffffffffffffffffffff160217905550505062000364565b8280546200015e90620002cb565b90600052602060002090601f016020900481019282620001825760008555620001ce565b82601f106200019d57805160ff1916838001178555620001ce565b82800160010185558215620001ce579182015b82811115620001cd578251825591602001919060010190620001b0565b5b509050620001dd9190620001e1565b5090565b5b80821115620001fc576000816000905550600101620001e2565b5090565b600081519050620002118162000330565b92915050565b60008151905062000228816200034a565b92915050565b600080604083850312156200024257600080fd5b6000620002528582860162000217565b9250506020620002658582860162000200565b9150509250929050565b60006200027c82620002ab565b9050919050565b600062000290826200026f565b9050919050565b6000620002a4826200026f565b9050919050565b600073ffffffffffffffffffffffffffffffffffffffff82169050919050565b60006002820490506001821680620002e457607f821691505b60208210811415620002fb57620002fa62000301565b5b50919050565b7f4e487b7100000000000000000000000000000000000000000000000000000000600052602260045260246000fd5b6200033b8162000283565b81146200034757600080fd5b50565b620003558162000297565b81146200036157600080fd5b50565b6110a180620003746000396000f3fe608060405234801561001057600080fd5b50600436106100a95760003560e01c80637547c7a3116100715780637547c7a3146101545780638da5cb5b14610170578063a5ce413b1461018e578063c93c8f3414610198578063d1af0c7d146101c8578063fd5e6dd1146101e6576100a9565b806306fdde03146100ae57806345bc78ab146100cc578063581a5809146100fc57806360ab58521461011a5780636f49712b14610124575b600080fd5b6100b6610216565b6040516100c39190610cc9565b60405180910390f35b6100e660048036038101906100e19190610a95565b6102a4565b6040516100f39190610d4b565b60405180910390f35b6101046102bc565b6040516101119190610cae565b60405180910390f35b6101226102e2565b005b61013e60048036038101906101399190610a95565b610501565b60405161014b9190610c78565b60405180910390f35b61016e60048036038101906101699190610ae7565b610521565b005b6101786107d4565b6040516101859190610bfd565b60405180910390f35b6101966107fa565b005b6101b260048036038101906101ad9190610a95565b6109d1565b6040516101bf9190610c78565b60405180910390f35b6101d06109f1565b6040516101dd9190610c93565b60405180910390f35b61020060048036038101906101fb9190610ae7565b610a17565b60405161020d9190610bfd565b60405180910390f35b6000805461022390610e9b565b80601f016020809104026020016040519081016040528092919081815260200182805461024f90610e9b565b801561029c5780601f106102715761010080835404028352916020019161029c565b820191906000526020600020905b81548152906001019060200180831161027f57829003601f168201915b505050505081565b60056020528060005260406000206000915090505481565b600260009054906101000a900473ffffffffffffffffffffffffffffffffffffffff1681565b600160009054906101000a900473ffffffffffffffffffffffffffffffffffffffff1673ffffffffffffffffffffffffffffffffffffffff163373ffffffffffffffffffffffffffffffffffffffff1614610372576040517f08c379a000000000000000000000000000000000000000000000000000000000815260040161036990610d0b565b60405180910390fd5b60005b6004805490508110156104fe576000600482815481106103be577f4e487b7100000000000000000000000000000000000000000000000000000000600052603260045260246000fd5b9060005260206000200160009054906101000a900473ffffffffffffffffffffffffffffffffffffffff1690506000600560008373ffffffffffffffffffffffffffffffffffffffff1673ffffffffffffffffffffffffffffffffffffffff16815260200190815260200160002054905060008111156104e957600360009054906101000a900473ffffffffffffffffffffffffffffffffffffffff1673ffffffffffffffffffffffffffffffffffffffff1663a9059cbb83836040518363ffffffff1660e01b8152600401610495929190610c4f565b602060405180830381600087803b1580156104af57600080fd5b505af11580156104c3573d6000803e3d6000fd5b505050506040513d601f19601f820116820180604052508101906104e79190610abe565b505b505080806104f690610ecd565b915050610375565b50565b60076020528060005260406000206000915054906101000a900460ff1681565b60008111610564576040517f08c379a000000000000000000000000000000000000000000000000000000000815260040161055b90610d2b565b60405180910390fd5b600260009054906101000a900473ffffffffffffffffffffffffffffffffffffffff1673ffffffffffffffffffffffffffffffffffffffff166323b872dd3330846040518463ffffffff1660e01b81526004016105c393929190610c18565b602060405180830381600087803b1580156105dd57600080fd5b505af11580156105f1573d6000803e3d6000fd5b505050506040513d601f19601f820116820180604052508101906106159190610abe565b5080600560003373ffffffffffffffffffffffffffffffffffffffff1673ffffffffffffffffffffffffffffffffffffffff16815260200190815260200160002060008282546106659190610d82565b92505081905550600660003373ffffffffffffffffffffffffffffffffffffffff1673ffffffffffffffffffffffffffffffffffffffff16815260200190815260200160002060009054906101000a900460ff16610721576004339080600181540180825580915050600190039060005260206000200160009091909190916101000a81548173ffffffffffffffffffffffffffffffffffffffff021916908373ffffffffffffffffffffffffffffffffffffffff1602179055505b6001600760003373ffffffffffffffffffffffffffffffffffffffff1673ffffffffffffffffffffffffffffffffffffffff16815260200190815260200160002060006101000a81548160ff0219169083151502179055506001600660003373ffffffffffffffffffffffffffffffffffffffff1673ffffffffffffffffffffffffffffffffffffffff16815260200190815260200160002060006101000a81548160ff02191690831515021790555050565b600160009054906101000a900473ffffffffffffffffffffffffffffffffffffffff1681565b6000600560003373ffffffffffffffffffffffffffffffffffffffff1673ffffffffffffffffffffffffffffffffffffffff16815260200190815260200160002054905060008111610881576040517f08c379a000000000000000000000000000000000000000000000000000000000815260040161087890610ceb565b60405180910390fd5b600260009054906101000a900473ffffffffffffffffffffffffffffffffffffffff1673ffffffffffffffffffffffffffffffffffffffff1663a9059cbb33836040518363ffffffff1660e01b81526004016108de929190610c4f565b602060405180830381600087803b1580156108f857600080fd5b505af115801561090c573d6000803e3d6000fd5b505050506040513d601f19601f820116820180604052508101906109309190610abe565b506000600560003373ffffffffffffffffffffffffffffffffffffffff1673ffffffffffffffffffffffffffffffffffffffff168152602001908152602001600020819055506000600760003373ffffffffffffffffffffffffffffffffffffffff1673ffffffffffffffffffffffffffffffffffffffff16815260200190815260200160002060006101000a81548160ff02191690831515021790555050565b60066020528060005260406000206000915054906101000a900460ff1681565b600360009054906101000a900473ffffffffffffffffffffffffffffffffffffffff1681565b60048181548110610a2757600080fd5b906000526020600020016000915054906101000a900473ffffffffffffffffffffffffffffffffffffffff1681565b600081359050610a6581611026565b92915050565b600081519050610a7a8161103d565b92915050565b600081359050610a8f81611054565b92915050565b600060208284031215610aa757600080fd5b6000610ab584828501610a56565b91505092915050565b600060208284031215610ad057600080fd5b6000610ade84828501610a6b565b91505092915050565b600060208284031215610af957600080fd5b6000610b0784828501610a80565b91505092915050565b610b1981610dd8565b82525050565b610b2881610dea565b82525050565b610b3781610e20565b82525050565b610b4681610e44565b82525050565b6000610b5782610d66565b610b618185610d71565b9350610b71818560208601610e68565b610b7a81610f74565b840191505092915050565b6000610b92601b83610d71565b9150610b9d82610f85565b602082019050919050565b6000610bb5601083610d71565b9150610bc082610fae565b602082019050919050565b6000610bd8602283610d71565b9150610be382610fd7565b604082019050919050565b610bf781610e16565b82525050565b6000602082019050610c126000830184610b10565b92915050565b6000606082019050610c2d6000830186610b10565b610c3a6020830185610b10565b610c476040830184610bee565b949350505050565b6000604082019050610c646000830185610b10565b610c716020830184610bee565b9392505050565b6000602082019050610c8d6000830184610b1f565b92915050565b6000602082019050610ca86000830184610b2e565b92915050565b6000602082019050610cc36000830184610b3d565b92915050565b60006020820190508181036000830152610ce38184610b4c565b905092915050565b60006020820190508181036000830152610d0481610b85565b9050919050565b60006020820190508181036000830152610d2481610ba8565b9050919050565b60006020820190508181036000830152610d4481610bcb565b9050919050565b6000602082019050610d606000830184610bee565b92915050565b600081519050919050565b600082825260208201905092915050565b6000610d8d82610e16565b9150610d9883610e16565b9250827fffffffffffffffffffffffffffffffffffffffffffffffffffffffffffffffff03821115610dcd57610dcc610f16565b5b828201905092915050565b6000610de382610df6565b9050919050565b60008115159050919050565b600073ffffffffffffffffffffffffffffffffffffffff82169050919050565b6000819050919050565b6000610e2b82610e32565b9050919050565b6000610e3d82610df6565b9050919050565b6000610e4f82610e56565b9050919050565b6000610e6182610df6565b9050919050565b60005b83811015610e86578082015181840152602081019050610e6b565b83811115610e95576000848401525b50505050565b60006002820490506001821680610eb357607f821691505b60208210811415610ec757610ec6610f45565b5b50919050565b6000610ed882610e16565b91507fffffffffffffffffffffffffffffffffffffffffffffffffffffffffffffffff821415610f0b57610f0a610f16565b5b600182019050919050565b7f4e487b7100000000000000000000000000000000000000000000000000000000600052601160045260246000fd5b7f4e487b7100000000000000000000000000000000000000000000000000000000600052602260045260246000fd5b6000601f19601f8301169050919050565b7f456c2062616c616e63652064656c207374616b696e6720657320300000000000600082015250565b7f4e6f206572657320656c206f776e657200000000000000000000000000000000600082015250565b7f4c612063616e7469646164206e6f20707565646520736572206d656e6f72206160008201527f2030000000000000000000000000000000000000000000000000000000000000602082015250565b61102f81610dd8565b811461103a57600080fd5b50565b61104681610dea565b811461105157600080fd5b50565b61105d81610e16565b811461106857600080fd5b5056fea2646970667358221220c6e4c6f43452580a00e9edeefe04d332f96ddd0a7fb17ab49bb3a0356369a85564736f6c63430008040033",
  "immutableReferences": {},
  "source": "// SPDX-License-Identifier: MIT\r\npragma solidity ^0.8.4;\r\n\r\nimport \"./StackToken.sol\";\r\nimport \"./RewardsToken.sol\";\r\n\r\ncontract DefiToken {\r\n    // Declaraciones iniciales\r\n    string public name = \"Defitoken\";\r\n    address public owner;\r\n    StackToken public stackToken;\r\n    RewardsToken public rewardsToken;\r\n\r\n    // Estructuras de datos\r\n    address[] public stakers;\r\n    mapping(address => uint256) public stakingBalance;\r\n    mapping(address => bool) public hasStaked;\r\n    mapping(address => bool) public isStaking;\r\n\r\n    // Constructor\r\n    constructor(StackToken _stackToken, RewardsToken _rewardsToken) {\r\n        stackToken = _stackToken;\r\n        rewardsToken = _rewardsToken;\r\n        owner = msg.sender;\r\n    }\r\n\r\n    // Stake de tokens\r\n    function stakeTokens(uint256 _amount) public {\r\n        // Se require una cantidad superior a 0\r\n        require(_amount > 0, \"La cantidad no puede ser menor a 0\");\r\n        // Transferir tokens JAM al Smart Contract principal\r\n        stackToken.transferFrom(msg.sender, address(this), _amount);\r\n        // Actualizar el saldo del staking\r\n        stakingBalance[msg.sender] += _amount;\r\n        // Guardar el staker\r\n        if (!hasStaked[msg.sender]) {\r\n            stakers.push(msg.sender);\r\n        }\r\n        // Actualizar el estado del staking\r\n        isStaking[msg.sender] = true;\r\n        hasStaked[msg.sender] = true;\r\n    }\r\n\r\n    // Quitar el staking de los tokens\r\n    function unstakeTokens() public {\r\n        // Saldo del staking de un usuario\r\n        uint256 balance = stakingBalance[msg.sender];\r\n        // Se require una cantidad superior a 0\r\n        require(balance > 0, \"El balance del staking es 0\");\r\n        // Transferencia de los tokens al usuario\r\n        stackToken.transfer(msg.sender, balance);\r\n        // Resetea el balance de staking del usuario\r\n        stakingBalance[msg.sender] = 0;\r\n        // Actualizar el estado del staking\r\n        isStaking[msg.sender] = false;\r\n    }\r\n\r\n    // Emision de Tokens (recompensas)\r\n    function issueTokens() public {\r\n        // Unicamente ejecutable por el owner\r\n        require(msg.sender == owner, \"No eres el owner\");\r\n        // Emitir tokens a todos los stakers\r\n        for (uint256 i = 0; i < stakers.length; i++) {\r\n            address recipient = stakers[i];\r\n            uint256 balance = stakingBalance[recipient];\r\n            if (balance > 0) {\r\n                rewardsToken.transfer(recipient, balance);\r\n            }\r\n        }\r\n    }\r\n}\r\n",
  "sourcePath": "C:\\Users\\Joni\\Desktop\\Blockchain\\cursos programacion\\Udemy\\Defi\\client\\contracts\\DefiToken.sol",
  "compiler": {
    "name": "solc",
    "version": "0.8.4+commit.c7e474f2.Emscripten.clang"
  },
  "schemaVersion": "3.4.11",
  "updatedAt": "2023-01-31T17:05:49.046Z",
  "networkType": "ethereum",
  "devdoc": {
    "kind": "dev",
    "methods": {},
    "version": 1
  },
  "userdoc": {
    "kind": "user",
    "methods": {},
    "version": 1
  }
}